:100000000C9434000C9469000C9478000C94490012
:100010000C9449000C9449000C9449000C9449003C
:100020000C9449000C9449000C9449000C9449002C
:100030000C9449000C9449000C9487000C944900DE
:100040000C9449000C9449000C9449000C9449000C
:100050000C9449000C9449000C9449000C944900FC
:100060000C9449000C94490011241FBECFEFD8E036
:10007000DEBFCDBF11E0A0E0B1E0ECE3F1E002C0F3
:1000800005900D92A430B107D9F70E9499000C9405
:100090009C000C9400008FEF84B915B852985A9ABE
:1000A00053985B9AE9E6F0E08081816080838081EB
:1000B00084608083E89AE99A84B5826084BDEEE624
:1000C000F0E080818260808385B5846085BD78940E
:1000D00008951F920F920FB60F9211248F93809163
:1000E000020187BD8F910F900FBE0F901F90189542
:1000F0001F920F920FB60F9211248F9380910001DF
:1001000087BD8F910F900FBE0F901F9018951F9273
:100110000F920FB60F9211248F939F9395B180E2A7
:10012000892785B99F918F910F900FBE0F901F90D7
:0C01300018950E944B00FFCFF894FFCF01
:04013C0064000A0051
:00000001FF
