:100000000C9434000C9449000C9449000C94490061
:100010000C9449000C9449000C9449000C9449003C
:100020000C9449000C9449000C9449000C948B00EA
:100030000C9449000C9449000C9449000C9449001C
:100040000C9449000C9449000C9449000C9449000C
:100050000C9449000C9449000C9449000C944900FC
:100060000C9449000C94490011241FBECFEFD8E036
:10007000DEBFCDBF11E0A0E0B1E0E8E6F1E002C0F4
:1000800005900D92A230B107D9F70E94AF000C94F1
:10009000B2000C940000569A80E887BD84B5806851
:1000A00084BD84B5896084BD85B5826085BD80E7E7
:1000B00092E09093890080938800E1E8F0E08081ED
:1000C00088608083AFE6B0E08C9182608C93808101
:1000D000856080837894089587B58F3F31F487B524
:1000E000815087BD10920001089587B5811107C026
:1000F00087B58F5F87BD81E080930001089580916F
:100100000001882321F087B58F5F87BD089587B5EB
:10011000815087BD08951F920F920FB60F92112440
:100120002F933F934F935F936F937F938F939F93FF
:10013000AF93BF93EF93FF930E946C00FF91EF91F9
:10014000BF91AF919F918F917F916F915F914F91EF
:100150003F912F910F900FBE0F901F9018950E9406
:080160004B00FFCFF894FFCF24
:02016800010094
:00000001FF
