S010000041756667616265332E7372656336
S11300000C9434000C9451000C9451000C94510045
S11300100C9451000C9451000C9451000C94510018
S11300200C9451000C9451000C9451000C94C60093
S11300300C9451000C9451000C9451000C945100F8
S11300400C9451000C9451000C9451000C945100E8
S11300500C9451000C9451000C9451000C945100D8
S11300600C9451000C94510011241FBECFEFD8E022
S1130070DEBFCDBF11E0A0E0B1E0EEEDF1E002C0E3
S113008005900D92A230B107D9F721E0A2E0B1E0CA
S113009001C01D92A430B207E1F70E94EA000C945B
S11300A0ED000C9400008FEF84B914B880E792E05F
S11300B09093890080938800E1E8F0E08081886073
S11300C08083AFE6B0E08C9182608C938081856000
S11300D080837894089580910201909103010097A0
S11300E071F480910001811103C081E080930001CB
S11300F081E090E09093030180930201089585309C
S1130100910561F48091000181111092000184E055
S113011090E09093030180930201089520910001DF
S1130120222331F0019690930301809302010895F4
S11301300197909303018093020108958091020135
S113014090910301009719F480E285B91CC08130B5
S1130150910519F480E185B916C08230910519F42E
S113016088E085B910C08330910519F484E085B91D
S11301700AC08430910519F482E085B904C005975A
S113018011F481E085B90E946B0008951F920F92CB
S11301900FB60F9211242F933F934F935F936F9356
S11301A07F938F939F93AF93BF93EF93FF930E949B
S11301B09E00FF91EF91BF91AF919F918F917F919D
S11301C06F915F914F913F912F910F900FBE0F90C0
S11101D01F9018950E945300FFCFF894FFCFA4
S10501DE01001A
S9030000FC
