:100000000C9434000C9451000C9451000C94510049
:100010000C9451000C9451000C9451000C9451001C
:100020000C9451000C9451000C9451000C94BF009E
:100030000C9451000C9451000C9451000C945100FC
:100040000C9451000C9451000C9451000C945100EC
:100050000C9451000C9451000C9451000C945100DC
:100060000C9451000C94510011241FBECFEFD8E026
:10007000DEBFCDBF11E0A0E0B1E0E0EDF1E002C0F5
:1000800005900D92A230B107D9F721E0A2E0B1E0CE
:1000900001C01D92A430B207E1F70E94E3000C9466
:1000A000E6000C9400008FEF84B915B880E792E069
:1000B0009093890080938800E1E8F0E08081886077
:1000C0008083AFE6B0E08C9182608C938081856004
:1000D00080837894089580910201909103010097A4
:1000E00051F481E08093000181E090E0909303015E
:1000F0008093020108958530910549F41092000122
:1001000084E090E090930301809302010895209190
:100110000001222331F001969093030180930201A4
:1001200008950197909303018093020108958091AF
:10013000020190910301009719F480E285B91CC077
:100140008130910519F480E185B916C0823091059E
:1001500019F488E085B910C08330910519F484E062
:1001600085B90AC08430910519F482E085B904C0CC
:10017000059711F481E085B90E946B0008951F92E4
:100180000F920FB60F9211242F933F934F935F93CB
:100190006F937F938F939F93AF93BF93EF93FF934F
:1001A0000E949700FF91EF91BF91AF919F918F9126
:1001B0007F916F915F914F913F912F910F900FBE63
:1001C0000F901F9018950E945300FFCFF894FFCF17
:0201D00001002C
:00000001FF
