:100000000C9434000C9449000C9449000C94490061
:100010000C9449000C9449000C9449000C9449003C
:100020000C9449000C9449000C9449000C948800ED
:100030000C9449000C9449000C9449000C9449001C
:100040000C9449000C9449000C9449000C9449000C
:100050000C9449000C9449000C9449000C944900FC
:100060000C9449000C94490011241FBECFEFD8E036
:10007000DEBFCDBF11E0A0E0B1E0ECE8F1E002C0EE
:1000800005900D92A230B107D9F70E94BF000C94E1
:10009000C4000C9400001092C50087E68093C40051
:1000A000E1ECF0E0808188608083E2ECF0E0808128
:1000B00086608083089581E19AE790938900809318
:1000C0008800E1E8F0E0808188608083AFE6B0E0FE
:1000D0008C9182608C938081846080837894089571
:1000E000ECE7F0E08083808180648083808180629F
:1000F0008083EAE7F0E08081876080838081806888
:100100008083808180648083808186FDFDCF089517
:100110001F920F920FB60F9211242F933F934F937C
:100120005F936F937F938F939F93AF93BF93EF935F
:10013000FF9380910001882321F080E00E947000ED
:1001400003C081E00E9470009091000181E0892746
:1001500080930001809179008093C600FF91EF9118
:10016000BF91AF919F918F917F916F915F914F91CF
:100170003F912F910F900FBE0F901F9018950E94E6
:0C0180004B000E945B00FFCFF894FFCF03
:02018C00010070
:00000001FF
