S010000041756667616265362E7372656333
S11300000C9434000C9446000C9446000C94460066
S11300100C9446000C9446000C9446000C94460044
S11300200C9446000C9446000C9446000C94460034
S11300300C9446000C9446000C9446000C94460024
S11300400C9446000C9446000C9446000C94460014
S11300500C9446000C9446000C9446000C94460004
S11300600C9446000C94460011241FBECFEFD8E038
S1130070DEBFCDBF21E0A0E0B1E001C01D92A03001
S1130080B207E1F70E9470000C948F000C940000FA
S11300901092C50087E68093C400E1ECF0E0808113
S11300A088608083E2ECF0E080818660808308953C
S11300B0ECE7F0E0808380818064808380818062CB
S11300C08083EAE7F0E080818760808380818068B4
S11300D08083808180648083808186FDFDCF089544
S11300E00E94480009E710E0C6ECD0E080E00E94DE
S11300F05800F8018081888387EA91E60197F1F737
S113010000C0000081E00E945800F80180818883CB
S113011087EA91E60197F1F700C00000E7CFF89471
S1050120FFCF0B
S9030000FC
