S010000041756667616265322E7372656337
S11300000C9434000C9446000C9446000C94460066
S11300100C9446000C9446000C9446000C94460044
S11300200C9446000C9446000C9446000C94A400D6
S11300300C9446000C9446000C9446000C94460024
S11300400C9446000C9446000C9446000C94460014
S11300500C9446000C9446000C9446000C94460004
S11300600C9446000C94460011241FBECFEFD8E038
S1130070DEBFCDBF21E0A0E0B1E001C01D92A230FF
S1130080B207E1F70E94C8000C94CB000C94000066
S113009084B18FEF84B915B889E698E1909389000B
S11300A080938800E1E8F0E0808188608083AFE697
S11300B0B0E08C9182608C93808185608083789499
S11300C0089580910001909101018A309105B9F061
S11300D01CF4009741F032C08B309105E1F085317A
S11300E0910529F12BC080E185B98091000190919F
S11300F0010101969093010180930001089584E128
S113010085B98091000190910101019690930101BC
S113011080930001089581E085B980910001909158
S1130120010101969093010180930001089584E0F8
S113013085B91092010110920001089501969093DF
S113014001018093000108951F920F920FB60F9240
S113015011242F933F934F935F936F937F938F93C8
S11301609F93AF93BF93EF93FF930E946100FF911E
S1130170EF91BF91AF919F918F917F916F915F911B
S11301804F913F912F910F900FBE0F901F90189594
S10D01900E944800FFCFF894FFCF4F
S9030000FC
