:100000000C9434000C9446000C9446000C9446006A
:100010000C9446000C9446000C9446000C94460048
:100020000C9446000C9446000C9446000C94460038
:100030000C9446000C9446000C9446000C94460028
:100040000C9446000C9446000C9446000C94460018
:100050000C9446000C9475000C9446000C944600D9
:100060000C9446000C94460011241FBECFEFD8E03C
:10007000DEBFCDBF21E0A0E0B1E001C01D92A23003
:10008000B207E1F70E949D000C94A0000C940000C0
:10009000ECE7F0E0108280818064808380818F7D36
:1000A0008083EAE7F0E080818760808380818062DE
:1000B000808310927B00808180688083808188604B
:1000C00080838081806480831092C50087E680935E
:1000D000C400E1ECF0E0808188608083E2ECF0E035
:1000E000808186608083789408951F920F920FB666
:1000F0000F9211248F939F93EF93FF938091780039
:100100008093000180917900809301018091010129
:10011000E6ECF0E0808387EA91E60197F1F700C012
:100120000000809100018083FF91EF919F918F915A
:100130000F900FBE0F901F9018950E944800FFCFA0
:04014000F894FFCF61
:00000001FF
